{
  "_format": "hh-sol-artifact-1",
  "contractName": "PayWithCrypto",
  "sourceName": "contracts/PayWithCrypto.sol",
  "abi": [
    {
      "inputs": [
        {
          "internalType": "address payable",
          "name": "_layer8WalletAddress",
          "type": "address"
        }
      ],
      "stateMutability": "nonpayable",
      "type": "constructor"
    },
    {
      "inputs": [],
      "name": "TransferFailed",
      "type": "error"
    },
    {
      "inputs": [
        {
          "internalType": "string",
          "name": "clientId",
          "type": "string"
        },
        {
          "internalType": "int256",
          "name": "rate",
          "type": "int256"
        }
      ],
      "name": "addClient",
      "outputs": [],
      "stateMutability": "nonpayable",
      "type": "function"
    },
    {
      "inputs": [
        {
          "internalType": "string",
          "name": "clientId",
          "type": "string"
        },
        {
          "internalType": "int256",
          "name": "trafficInBytes",
          "type": "int256"
        }
      ],
      "name": "addTrafficUsage",
      "outputs": [],
      "stateMutability": "nonpayable",
      "type": "function"
    },
    {
      "inputs": [
        {
          "internalType": "string",
          "name": "clientId",
          "type": "string"
        }
      ],
      "name": "getClient",
      "outputs": [
        {
          "components": [
            {
              "internalType": "string",
              "name": "clientId",
              "type": "string"
            },
            {
              "internalType": "int256",
              "name": "rate",
              "type": "int256"
            },
            {
              "internalType": "int256",
              "name": "totalTrafficInBytes",
              "type": "int256"
            },
            {
              "internalType": "int256",
              "name": "unpaidAmount",
              "type": "int256"
            }
          ],
          "internalType": "struct PayWithCrypto.ClientData",
          "name": "",
          "type": "tuple"
        }
      ],
      "stateMutability": "view",
      "type": "function"
    },
    {
      "inputs": [
        {
          "internalType": "string",
          "name": "clientId",
          "type": "string"
        }
      ],
      "name": "getUnpaidAmount",
      "outputs": [
        {
          "internalType": "int256",
          "name": "",
          "type": "int256"
        }
      ],
      "stateMutability": "view",
      "type": "function"
    },
    {
      "inputs": [],
      "name": "layer8WalletAddress",
      "outputs": [
        {
          "internalType": "address payable",
          "name": "",
          "type": "address"
        }
      ],
      "stateMutability": "view",
      "type": "function"
    },
    {
      "inputs": [
        {
          "internalType": "string",
          "name": "clientId",
          "type": "string"
        }
      ],
      "name": "pay",
      "outputs": [],
      "stateMutability": "payable",
      "type": "function"
    },
    {
      "inputs": [
        {
          "internalType": "string",
          "name": "clientId",
          "type": "string"
        },
        {
          "internalType": "int256",
          "name": "newRate",
          "type": "int256"
        }
      ],
      "name": "setClientRate",
      "outputs": [],
      "stateMutability": "nonpayable",
      "type": "function"
    },
    {
      "inputs": [
        {
          "internalType": "address payable",
          "name": "_newLayer8WalletAddress",
          "type": "address"
        }
      ],
      "name": "setLayer8WalletAddress",
      "outputs": [],
      "stateMutability": "nonpayable",
      "type": "function"
    }
  ],
  "bytecode": "0x608060405234801561001057600080fd5b506040516113803803806113808339818101604052810190610032919061011d565b80600260006101000a81548173ffffffffffffffffffffffffffffffffffffffff021916908373ffffffffffffffffffffffffffffffffffffffff16021790555033600160006101000a81548173ffffffffffffffffffffffffffffffffffffffff021916908373ffffffffffffffffffffffffffffffffffffffff1602179055505061014a565b600080fd5b600073ffffffffffffffffffffffffffffffffffffffff82169050919050565b60006100ea826100bf565b9050919050565b6100fa816100df565b811461010557600080fd5b50565b600081519050610117816100f1565b92915050565b600060208284031215610133576101326100ba565b5b600061014184828501610108565b91505092915050565b611227806101596000396000f3fe60806040526004361061007b5760003560e01c80637eb789321161004e5780637eb789321461012b5780638f4d9a3d14610168578063c882265514610191578063fdb497ff146101bc5761007b565b80631cad838b146100805780632b66d72e146100a9578063433a84c9146100c5578063700e78ac146100ee575b600080fd5b34801561008c57600080fd5b506100a760048036038101906100a29190610946565b6101e5565b005b6100c360048036038101906100be91906109a6565b6102a7565b005b3480156100d157600080fd5b506100ec60048036038101906100e79190610946565b6103fd565b005b3480156100fa57600080fd5b50610115600480360381019061011091906109a6565b6104d3565b6040516101229190610a02565b60405180910390f35b34801561013757600080fd5b50610152600480360381019061014d91906109a6565b610506565b60405161015f9190610b1f565b60405180910390f35b34801561017457600080fd5b5061018f600480360381019061018a9190610946565b610681565b005b34801561019d57600080fd5b506101a661077f565b6040516101b39190610b82565b60405180910390f35b3480156101c857600080fd5b506101e360048036038101906101de9190610bc9565b6107a5565b005b600160009054906101000a900473ffffffffffffffffffffffffffffffffffffffff1673ffffffffffffffffffffffffffffffffffffffff163373ffffffffffffffffffffffffffffffffffffffff1614610275576040517f08c379a000000000000000000000000000000000000000000000000000000000815260040161026c90610c79565b60405180910390fd5b6000808484604051610288929190610cd8565b9081526020016040518091039020905081816001018190555050505050565b60008083836040516102ba929190610cd8565b9081526020016040518091039020905060003490508160030154811215610316576040517f08c379a000000000000000000000000000000000000000000000000000000000815260040161030d90610d3d565b60405180910390fd5b6000600260009054906101000a900473ffffffffffffffffffffffffffffffffffffffff1673ffffffffffffffffffffffffffffffffffffffff163460405161035e90610d8e565b60006040518083038185875af1925050503d806000811461039b576040519150601f19603f3d011682016040523d82523d6000602084013e6103a0565b606091505b50509050806103db576040517f90b8ec1800000000000000000000000000000000000000000000000000000000815260040160405180910390fd5b818360030160008282546103ef9190610dd2565b925050819055505050505050565b600160009054906101000a900473ffffffffffffffffffffffffffffffffffffffff1673ffffffffffffffffffffffffffffffffffffffff163373ffffffffffffffffffffffffffffffffffffffff161461048d576040517f08c379a000000000000000000000000000000000000000000000000000000000815260040161048490610c79565b60405180910390fd5b60008084846040516104a0929190610cd8565b9081526020016040518091039020905083838260000191826104c3929190611065565b5081816001018190555050505050565b600080600084846040516104e8929190610cd8565b90815260200160405180910390209050806003015491505092915050565b61050e610879565b600160009054906101000a900473ffffffffffffffffffffffffffffffffffffffff1673ffffffffffffffffffffffffffffffffffffffff163373ffffffffffffffffffffffffffffffffffffffff161461059e576040517f08c379a000000000000000000000000000000000000000000000000000000000815260040161059590610c79565b60405180910390fd5b600083836040516105b0929190610cd8565b90815260200160405180910390206040518060800160405290816000820180546105d990610e7e565b80601f016020809104026020016040519081016040528092919081815260200182805461060590610e7e565b80156106525780601f1061062757610100808354040283529160200191610652565b820191906000526020600020905b81548152906001019060200180831161063557829003601f168201915b505050505081526020016001820154815260200160028201548152602001600382015481525050905092915050565b600160009054906101000a900473ffffffffffffffffffffffffffffffffffffffff1673ffffffffffffffffffffffffffffffffffffffff163373ffffffffffffffffffffffffffffffffffffffff1614610711576040517f08c379a000000000000000000000000000000000000000000000000000000000815260040161070890610c79565b60405180910390fd5b6000808484604051610724929190610cd8565b90815260200160405180910390209050818160020160008282546107489190611135565b9250508190555081816001015461075f9190611179565b8160030160008282546107729190611135565b9250508190555050505050565b600260009054906101000a900473ffffffffffffffffffffffffffffffffffffffff1681565b600160009054906101000a900473ffffffffffffffffffffffffffffffffffffffff1673ffffffffffffffffffffffffffffffffffffffff163373ffffffffffffffffffffffffffffffffffffffff1614610835576040517f08c379a000000000000000000000000000000000000000000000000000000000815260040161082c90610c79565b60405180910390fd5b80600260006101000a81548173ffffffffffffffffffffffffffffffffffffffff021916908373ffffffffffffffffffffffffffffffffffffffff16021790555050565b6040518060800160405280606081526020016000815260200160008152602001600081525090565b600080fd5b600080fd5b600080fd5b600080fd5b600080fd5b60008083601f8401126108d0576108cf6108ab565b5b8235905067ffffffffffffffff8111156108ed576108ec6108b0565b5b602083019150836001820283011115610909576109086108b5565b5b9250929050565b6000819050919050565b61092381610910565b811461092e57600080fd5b50565b6000813590506109408161091a565b92915050565b60008060006040848603121561095f5761095e6108a1565b5b600084013567ffffffffffffffff81111561097d5761097c6108a6565b5b610989868287016108ba565b9350935050602061099c86828701610931565b9150509250925092565b600080602083850312156109bd576109bc6108a1565b5b600083013567ffffffffffffffff8111156109db576109da6108a6565b5b6109e7858286016108ba565b92509250509250929050565b6109fc81610910565b82525050565b6000602082019050610a1760008301846109f3565b92915050565b600081519050919050565b600082825260208201905092915050565b60005b83811015610a57578082015181840152602081019050610a3c565b60008484015250505050565b6000601f19601f8301169050919050565b6000610a7f82610a1d565b610a898185610a28565b9350610a99818560208601610a39565b610aa281610a63565b840191505092915050565b610ab681610910565b82525050565b60006080830160008301518482036000860152610ad98282610a74565b9150506020830151610aee6020860182610aad565b506040830151610b016040860182610aad565b506060830151610b146060860182610aad565b508091505092915050565b60006020820190508181036000830152610b398184610abc565b905092915050565b600073ffffffffffffffffffffffffffffffffffffffff82169050919050565b6000610b6c82610b41565b9050919050565b610b7c81610b61565b82525050565b6000602082019050610b976000830184610b73565b92915050565b610ba681610b61565b8114610bb157600080fd5b50565b600081359050610bc381610b9d565b92915050565b600060208284031215610bdf57610bde6108a1565b5b6000610bed84828501610bb4565b91505092915050565b600082825260208201905092915050565b7f4f6e6c79206f776e657220697320616c6c6f77656420746f206578656375746560008201527f20746869732066756e6374696f6e000000000000000000000000000000000000602082015250565b6000610c63602e83610bf6565b9150610c6e82610c07565b604082019050919050565b60006020820190508181036000830152610c9281610c56565b9050919050565b600081905092915050565b82818337600083830152505050565b6000610cbf8385610c99565b9350610ccc838584610ca4565b82840190509392505050565b6000610ce5828486610cb3565b91508190509392505050565b7f66756c6c20616d6f756e74206d75737420626520706169640000000000000000600082015250565b6000610d27601883610bf6565b9150610d3282610cf1565b602082019050919050565b60006020820190508181036000830152610d5681610d1a565b9050919050565b600081905092915050565b50565b6000610d78600083610d5d565b9150610d8382610d68565b600082019050919050565b6000610d9982610d6b565b9150819050919050565b7f4e487b7100000000000000000000000000000000000000000000000000000000600052601160045260246000fd5b6000610ddd82610910565b9150610de883610910565b9250828203905081811260008412168282136000851215161715610e0f57610e0e610da3565b5b92915050565b600082905092915050565b7f4e487b7100000000000000000000000000000000000000000000000000000000600052604160045260246000fd5b7f4e487b7100000000000000000000000000000000000000000000000000000000600052602260045260246000fd5b60006002820490506001821680610e9657607f821691505b602082108103610ea957610ea8610e4f565b5b50919050565b60008190508160005260206000209050919050565b60006020601f8301049050919050565b600082821b905092915050565b600060088302610f117fffffffffffffffffffffffffffffffffffffffffffffffffffffffffffffffff82610ed4565b610f1b8683610ed4565b95508019841693508086168417925050509392505050565b6000819050919050565b6000819050919050565b6000610f62610f5d610f5884610f33565b610f3d565b610f33565b9050919050565b6000819050919050565b610f7c83610f47565b610f90610f8882610f69565b848454610ee1565b825550505050565b600090565b610fa5610f98565b610fb0818484610f73565b505050565b5b81811015610fd457610fc9600082610f9d565b600181019050610fb6565b5050565b601f82111561101957610fea81610eaf565b610ff384610ec4565b81016020851015611002578190505b61101661100e85610ec4565b830182610fb5565b50505b505050565b600082821c905092915050565b600061103c6000198460080261101e565b1980831691505092915050565b6000611055838361102b565b9150826002028217905092915050565b61106f8383610e15565b67ffffffffffffffff81111561108857611087610e20565b5b6110928254610e7e565b61109d828285610fd8565b6000601f8311600181146110cc57600084156110ba578287013590505b6110c48582611049565b86555061112c565b601f1984166110da86610eaf565b60005b82811015611102578489013582556001820191506020850194506020810190506110dd565b8683101561111f578489013561111b601f89168261102b565b8355505b6001600288020188555050505b50505050505050565b600061114082610910565b915061114b83610910565b92508282019050828112156000831216838212600084121516171561117357611172610da3565b5b92915050565b600061118482610910565b915061118f83610910565b925082820261119d81610910565b91507f800000000000000000000000000000000000000000000000000000000000000084146000841216156111d5576111d4610da3565b5b82820584148315176111ea576111e9610da3565b5b509291505056fea2646970667358221220bd12c189986051d6cfca35ee4b54e274a62614fec370ae6aa9b7e52b1c8edf3e64736f6c634300081c0033",
  "linkReferences": {},
  "deployedLinkReferences": {}
}